:100000000C942A000C9447000C9447000C94470071
:100010000C9447000C9447000C9447000C94470044
:100020000C9447000C9447000C9447000C94470034
:100030000C9447000C94930C0C9447000C944700CC
:100040000C9447000C9447000C9447000C94470014
:100050000C94470011241FBECFE5D8E0DEBFCDBF12
:1000600010E0A0E6B0E0ECE6FCE102C005900D92E5
:10007000AA36B107D9F710E0AAE6B0E001C01D9298
:10008000AE36B107E1F70E94B10C0C94340E0C941B
:100090000000EF92FF920F931F937B018C0120E0F1
:1000A00030E040E05FE40E94490388238CF0C801FF
:1000B000B70120E030E040E05FE40E94C1010E940F
:1000C000A9039B01AC01205030404040504806C07D
:1000D000C801B7010E94A9039B01AC01B901CA0183
:1000E0001F910F91FF90EF900895A0E0B0E0EBE733
:1000F000F0E00C94FD0DDC012B01FA019C91923093
:1001000008F439C1EB018881823008F433C194309E
:1001100069F4843009F02FC111969C91119789815F
:10012000981709F428C1A0E6B0E025C1843009F48D
:1001300021C18230A9F4923009F01DC19A01AD01AC
:1001400088E0EA010990AE01E90109929E0181501F
:10015000C1F7E201898111969C918923818308C1AD
:10016000923009F407C112962D903C901397EB0141
:100170008A819B811496AD90BD90CD90DC901797AD
:10018000EC80FD800E811F819101281B390BB90184
:1001900037FF04C066277727621B730B6032710537
:1001A0000CF061C0121613066CF537014801062EDB
:1001B00004C096948794779467940A94D2F721E0C8
:1001C00030E040E050E004C0220F331F441F551FB1
:1001D0006A95D2F721503040404050402E213F21B7
:1001E00040235123211531054105510521F021E01E
:1001F00030E040E050E079018A01E628F72808293C
:1002000019293CC0232BD1F1260E371E350146019A
:10021000062E04C096948794779467940A94D2F734
:1002200021E030E040E050E004C0220F331F441FC3
:10023000551F6A95D2F721503040404050402A2146
:100240003B214C215D21211531054105510521F04E
:1002500021E030E040E050E059016A01A628B728CB
:10026000C828D9280BC0821593052CF01C01AA249C
:10027000BB24650103C0EE24FF24870111969C91E5
:10028000D20111968C91981709F445C0992339F041
:10029000A80197012A193B094C095D0906C0A6016E
:1002A00095012E193F09400B510B57FD08C01182D3
:1002B0003382228224833583468357831DC081E0A5
:1002C00081833382228288279927DC01821B930B4A
:1002D000A40BB50B84839583A683B7830DC0220F2F
:1002E000331F441F551F24833583468357838281E0
:1002F000938101979383828324813581468157813D
:10030000DA01C9010197A109B1098F5F9F4FAF4F72
:10031000BF4328F30BC0918333822282EA0CFB1C7B
:100320000C1D1D1DE482F5820683178383E0808304
:10033000248135814681578157FF1AC0C901AA27F8
:1003400097FDA095BA2F81709070A070B0705695EF
:10035000479537952795822B932BA42BB52B848318
:100360009583A683B7838281938101969383828349
:10037000DF0101C0D201CD01CDB7DEB7E2E10C94BF
:10038000190EA0E2B0E0E7ECF1E00C94090E6983ED
:100390007A838B839C832D833E834F835887E9E048
:1003A000EE2EF12CEC0EFD1ECE010196B7010E943F
:1003B000D2048E010F5E1F4FCE010596B8010E9438
:1003C000D2048A8991E089278A8BC701B801AE01DE
:1003D000475E5F4F0E9475000E94FD03A096E6E015
:1003E0000C94250EA0E2B0E0E8EFF1E00C94090EC9
:1003F00069837A838B839C832D833E834F835887C5
:10040000F9E0EF2EF12CEC0EFD1ECE010196B701A6
:100410000E94D2048E010F5E1F4FCE010596B801D7
:100420000E94D204C701B801AE01475E5F4F0E942F
:1004300075000E94FD03A096E6E00C94250EA0E254
:10044000B0E0E5E2F2E00C94FD0D69837A838B83E2
:100450009C832D833E834F835887CE010196BE0136
:10046000675F7F4F0E94D204CE010596BE016F5E8A
:100470007F4F0E94D2049985923088F0898982301A
:10048000C8F0943019F4823051F404C0843029F457
:10049000923081F480E690E0C6C0923049F420E0CA
:1004A0009A858A89981321E02A87CE010996BBC0D4
:1004B000823049F420E09A858A89981321E02A8BBA
:1004C000CE014196B0C02D843E844F8458886D88FB
:1004D0007E888F88988CEE24FF248701AA24BB2471
:1004E000650140E050E060E070E0E0E0F0E0C10174
:1004F00081709070892BE9F0E60CF71C081D191D1E
:100500009A01AB012A0D3B1D4C1D5D1D80E090E062
:10051000A0E0B0E0E614F7040805190520F481E036
:1005200090E0A0E0B0E0BA01A901480F591F6A1F8E
:100530007B1FAA0CBB1CCC1CDD1C97FE08C081E0F5
:1005400090E0A0E0B0E0A82AB92ACA2ADB2A3196B6
:10055000E032F10549F0660C771C881C991C569412
:10056000479437942794C3CFFA85EA892B893C892D
:100570008B859C85280F391F2E5F3F4F17C0CA01FE
:1005800081709070892B61F016950795F794E79428
:1005900080E090E0A0E0B0E8E82AF92A0A2B1B2BC3
:1005A00076956795579547952F5F3F4F77FDE7CF36
:1005B0000CC0440F551F661F771F17FD4160EE0CDE
:1005C000FF1C001F111F21503040403090E05907A0
:1005D00090E0690790E4790760F32B8F3C8FDB0193
:1005E000CA018F779070A070B07080349105A1051A
:1005F000B10561F447FD0AC0E114F10401051105DC
:1006000029F0405C5F4F6F4F7F4F40781A8EFE1786
:1006100011F081E08A8F4D8F5E8F6F8F78A383E01A
:10062000898FCE0149960E94FD03A096E2E10C94C9
:10063000190EA8E1B0E0EFE1F3E00C94090E698334
:100640007A838B839C832D833E834F83588789E0F5
:10065000E82EF12CEC0EFD1ECE010196B7010E9492
:10066000D2048E010F5E1F4FCE010596B8010E9485
:10067000D2048985823040F08989823028F0C70110
:10068000B8010E944A0501C08FEF6896E6E00C941D
:10069000250EA8E1B0E0EFE4F3E00C94090E6983C5
:1006A0007A838B839C832D833E834F83588789E095
:1006B000E82EF12CEC0EFD1ECE010196B7010E9432
:1006C000D2048E010F5E1F4FCE010596B8010E9425
:1006D000D2048985823040F08989823028F0C701B0
:1006E000B8010E944A0501C08FEF6896E6E00C94BD
:1006F000250EA8E1B0E0EFE7F3E00C94090E698362
:100700007A838B839C832D833E834F83588789E034
:10071000E82EF12CEC0EFD1ECE010196B7010E94D1
:10072000D2048E010F5E1F4FCE010596B8010E94C4
:10073000D2048985823040F08989823028F0C7014F
:10074000B8010E944A0501C081E06896E6E00C9479
:10075000250EACE0B0E0EFEAF3E00C940D0E6983F7
:100760007A838B839C83CE010196BE016B5F7F4FA2
:100770000E94D2048D81823061F1823050F1843048
:1007800021F48E81882351F12EC02F81388537FDC9
:1007900020C06E812F3131051CF06623F9F023C093
:1007A0008EE190E0821B930B29853A854B855C8511
:1007B00004C056954795379527958A95D2F76623B5
:1007C000B1F050954095309521953F4F4F4F5F4F79
:1007D0000EC020E030E040E050E009C02FEF3FEFD6
:1007E0004FEF5FE704C020E030E040E050E8B9019F
:1007F000CA012C96E2E00C94290EDF92EF92FF9250
:100800000F931F93FC01E480F58006811781D1804E
:100810008081823048F480E090E0A0E1B0E0E82AF6
:10082000F92A0A2B1B2BA5C0843009F49FC0823003
:1008300021F4EE24FF24870105C0E114F104010531
:10084000110519F4E0E0F0E096C0628173819FEF3A
:10085000623879070CF05BC022E83FEF261B370BAC
:100860002A3131052CF020E030E040E050E02AC091
:10087000B801A701022E04C0769567955795479554
:100880000A94D2F781E090E0A0E0B0E004C0880FC5
:10089000991FAA1FBB1F2A95D2F70197A109B10979
:1008A0008E219F21A023B1230097A105B10521F03E
:1008B00081E090E0A0E0B0E09A01AB01282B392B59
:1008C0004A2B5B2BDA01C9018F779070A070B07052
:1008D00080349105A105B10539F427FF09C0205CDA
:1008E0003F4F4F4F5F4F04C0215C3F4F4F4F5F4F13
:1008F000E0E0F0E02030A0E03A07A0E04A07A0E402
:100900005A0710F0E1E0F0E079018A0127C0603871
:10091000710564F5FB01E158FF4FD801C7018F77DE
:100920009070A070B07080349105A105B10539F4C4
:10093000E7FE0DC080E490E0A0E0B0E004C08FE3EB
:1009400090E0A0E0B0E0E80EF91E0A1F1B1F17FFA1
:1009500005C016950795F794E794319687E01695AC
:100960000795F794E7948A95D1F705C0EE24FF2404
:100970008701EFEFF0E06E2F679566276795902F60
:100980009F77D794DD24D7948E2F8695492F462BB9
:10099000582F5D29B701CA011F910F91FF90EF9069
:1009A000DF900895FC01DB01408151812281622F9B
:1009B0006F7770E0221F2227221F9381892F880FD3
:1009C000822B282F30E0991F9927991F11969C930D
:1009D000119721153105A9F54115510561057105DD
:1009E00011F482E037C082E89FEF13969C938E93B8
:1009F00012979A01AB0167E0220F331F441F551F66
:100A00006A95D1F783E08C930DC0220F331F441FEA
:100A1000551F12968D919C911397019713969C9355
:100A20008E931297203080E0380780E0480780E4FA
:100A3000580758F314962D933D934D935C93179755
:100A400008952F3F310579F4411551056105710570
:100A500019F484E08C93089564FF03C081E08C93C3
:100A600012C01C9210C02F57304013963C932E9307
:100A7000129783E08C9387E0440F551F661F771F02
:100A80008A95D1F7706414964D935D936D937C9322
:100A9000179708951F93DC01FB019C91923008F495
:100AA00047C08081823008F443C0943051F41196DD
:100AB0001C91843099F58181682F70E0611B710968
:100AC0003FC0843021F0923031F48230B9F181811D
:100AD000882389F12DC011961C9111978230F1F075
:100AE00081811817D9F412962D913C911397828128
:100AF00093818217930794F028173907BCF0149656
:100B00008D919D910D90BC91A02D248135814681C0
:100B10005781281739074A075B0718F4112341F05A
:100B20000AC082179307A407B50740F4112319F0F0
:100B300061E070E005C06FEF7FEF02C060E070E041
:100B4000CB011F910895DF93CF9300D000D000D048
:100B5000CDB7DEB78B836C8381E08A838B81803253
:100B600008F0D6C08C81823008F0D2C01A828B8106
:100B700086958695869589838B8187708B838981FD
:100B8000282F30E03E832D838D819E818130910519
:100B900009F441C02D813E81223031052CF48D8134
:100BA0009E81009771F0B4C02D813E8122303105C5
:100BB00009F45BC08D819E818330910509F47FC06B
:100BC000A7C08C81813099F4AAE3B0E0EAE3F0E0B9
:100BD00040818B81282F30E081E090E0022E02C01E
:100BE000880F991F0A94E2F7842B8C9391C0AAE393
:100BF000B0E0EAE3F0E040818B81282F30E081E033
:100C000090E0022E02C0880F991F0A94E2F78095A7
:100C100084238C937DC08C81813099F4A7E3B0E06C
:100C2000E7E3F0E040818B81282F30E081E090E025
:100C3000022E02C0880F991F0A94E2F7842B8C932E
:100C400067C0A7E3B0E0E7E3F0E040818B81282FA5
:100C500030E081E090E0022E02C0880F991F0A94D4
:100C6000E2F7809584238C9353C08C81813099F472
:100C7000A4E3B0E0E4E3F0E040818B81282F30E092
:100C800081E090E0022E02C0880F991F0A94E2F7DB
:100C9000842B8C933DC0A4E3B0E0E4E3F0E040811A
:100CA0008B81282F30E081E090E0022E02C0880F77
:100CB000991F0A94E2F7809584238C9329C08C8134
:100CC000813099F4A1E3B0E0E1E3F0E040818B8171
:100CD000282F30E081E090E0022E02C0880F991F9B
:100CE0000A94E2F7842B8C9313C0A1E3B0E0E1E314
:100CF000F0E040818B81282F30E081E090E0022EEF
:100D000002C0880F991F0A94E2F7809584238C9380
:100D10008A8126960FB6F894DEBF0FBECDBFCF9165
:100D2000DF910895DF93CF9300D000D00F92CDB71D
:100D3000DEB78A836B8381E089838A81843098F56A
:100D400019828A81282F30E03D832C838C819D81FC
:100D500081309105D1F02C813D81223031052CF478
:100D60008C819D81009761F01EC02C813D812230D5
:100D7000310581F08C819D818330910581F013C014
:100D8000EAE3F0E08B8180830EC0E7E3F0E08B8143
:100D9000808309C0E4E3F0E08B81808304C0E1E359
:100DA000F0E08B81808389810F900F900F900F90DE
:100DB0000F90CF91DF910895DF93CF9300D000D0B3
:100DC00000D0CDB7DEB78B836C8381E08A838B81C3
:100DD000803208F0D6C08C81823008F0D2C01A82EE
:100DE0008B8186958695869589838B8187708B8389
:100DF0008981282F30E03E832D838D819E81813033
:100E0000910509F441C02D813E81223031052CF439
:100E10008D819E81009771F0B4C02D813E8122307A
:100E2000310509F45BC08D819E818330910509F401
:100E30007FC0A7C08C81813099F4ABE3B0E0EBE3D5
:100E4000F0E040818B81282F30E081E090E0022E9D
:100E500002C0880F991F0A94E2F7842B8C9391C0EB
:100E6000ABE3B0E0EBE3F0E040818B81282F30E092
:100E700081E090E0022E02C0880F991F0A94E2F7E9
:100E8000809584238C937DC08C81813099F4A8E374
:100E9000B0E0E8E3F0E040818B81282F30E081E092
:100EA00090E0022E02C0880F991F0A94E2F7842B6B
:100EB0008C9367C0A8E3B0E0E8E3F0E040818B8169
:100EC000282F30E081E090E0022E02C0880F991FA9
:100ED0000A94E2F7809584238C9353C08C818130EF
:100EE00099F4A5E3B0E0E5E3F0E040818B81282FA1
:100EF00030E081E090E0022E02C0880F991F0A9432
:100F0000E2F7842B8C933DC0A5E3B0E0E5E3F0E08D
:100F100040818B81282F30E081E090E0022E02C0DA
:100F2000880F991F0A94E2F7809584238C9329C037
:100F30008C81813099F4A2E3B0E0E2E3F0E04081FB
:100F40008B81282F30E081E090E0022E02C0880FD4
:100F5000991F0A94E2F7842B8C9313C0A2E3B0E0AC
:100F6000E2E3F0E040818B81282F30E081E090E0E7
:100F7000022E02C0880F991F0A94E2F780958423FD
:100F80008C938A8126960FB6F894DEBF0FBECDBF34
:100F9000CF91DF910895DF93CF9300D000D00F92CF
:100FA000CDB7DEB78A836B8381E089838A81843001
:100FB00098F519828A81282F30E03D832C838C811B
:100FC0009D8181309105D1F02C813D812230310508
:100FD0002CF48C819D81009761F01EC02C813D8195
:100FE0002230310581F08C819D818330910581F023
:100FF00013C0EBE3F0E08B8180830EC0E8E3F0E008
:101000008B81808309C0E5E3F0E08B81808304C09D
:10101000E2E3F0E08B81808389810F900F900F9045
:101020000F900F90CF91DF910895DF93CF93CDB7BD
:10103000DEB727970FB6F894DEBF0FBECDBF8B8308
:101040007D836C8381E08A838B81803208F079C054
:101050001A828B8186958695869589838B81877088
:101060008B838981282F30E03F832E834E815F81DF
:101070004130510559F18E819F818230910534F4C0
:101080002E813F812115310569F05BC04E815F8162
:101090004230510579F18E819F818330910509F4A9
:1010A0003DC04FC0E9E3F0E08081282F30E08B8124
:1010B000882F90E0A90102C0559547958A95E2F7DF
:1010C000CA018170EC81FD8180833BC0E6E3F0E0E2
:1010D0008081282F30E08B81882F90E0A90102C009
:1010E000559547958A95E2F7CA018170EC81FD819B
:1010F000808327C0E3E3F0E08081282F30E08B81FC
:10110000882F90E0A90102C0559547958A95E2F78E
:10111000CA018170EC81FD81808313C0E0E3F0E0BF
:101120008081282F30E08B81882F90E0A90102C0B8
:10113000559547958A95E2F7CA018170EC81FD814A
:1011400080838A8127960FB6F894DEBF0FBECDBF8D
:10115000CF91DF910895DF93CF9300D000D000D0DE
:10116000CDB7DEB78A837C836B8381E089838A81F4
:101170008430D8F519828A81282F30E03E832D8370
:101180008D819E8181309105E1F02D813E8122305B
:1011900031052CF48D819E81009761F026C02D8150
:1011A0003E8122303105A1F08D819E8183309105F1
:1011B000B1F01BC0E9E3F0E08081EB81FC8180832A
:1011C00014C0E6E3F0E08081EB81FC8180830DC0F8
:1011D000E3E3F0E08081EB81FC81808306C0E0E303
:1011E000F0E08081EB81FC818083898126960FB6B7
:1011F000F894DEBF0FBECDBFCF91DF910895DF938E
:10120000CF9300D000D00F92CDB7DEB78B8381E0B3
:101210008A838B81803208F074C01A828B81869514
:101220008695869589838B8187708B838981282F0A
:1012300030E03D832C838C819D818130910549F183
:101240002C813D81223031052CF48C819D810097C9
:1012500061F057C02C813D812230310569F18C81CC
:101260009D8183309105D9F14CC0ABE3B0E0EBE355
:10127000F0E040818B81282F30E081E090E0022E69
:1012800002C0880F991F0A94E2F7809584238C93FB
:1012900038C0A8E3B0E0E8E3F0E040818B81282F7C
:1012A00030E081E090E0022E02C0880F991F0A947E
:1012B000E2F7842B8C9325C0A5E3B0E0E5E3F0E0F2
:1012C00040818B81282F30E081E090E0022E02C027
:1012D000880F991F0A94E2F7842B8C9312C0A2E323
:1012E000B0E0E2E3F0E040818B81282F30E081E044
:1012F00090E0022E02C0880F991F0A94E2F7842B17
:101300008C938A810F900F900F900F900F90CF9138
:10131000DF910895DF93CF9300D000D0CDB7DEB733
:101320008A8381E089838A81843098F519828A8151
:10133000282F30E03C832B838B819C818130910569
:10134000D1F02B813C81223031052CF48B819C81A2
:10135000009761F01EC02B813C812230310581F065
:101360008B819C818330910581F013C0EBE3F0E029
:101370008FEF80830EC0E8E3F0E08FEF808309C039
:10138000E5E3F0E08FEF808304C0E2E3F0E08FEF6D
:10139000808389810F900F900F900F90CF91DF91F4
:1013A0000895DF93CF9300D000D00F92CDB7DEB772
:1013B0008B8381E08A838B81803208F073C01A822C
:1013C0008B8186958695869589838B8187708B83A3
:1013D0008981282F30E03D832C838C819D81813051
:1013E000910541F12C813D81223031052CF48C8115
:1013F0009D81009761F056C02C813D8122303105DE
:1014000061F18C819D8183309105D1F14BC0ABE3BB
:10141000B0E0EBE3F0E040818B81282F30E081E009
:1014200090E0022E02C0880F991F0A94E2F78427E9
:101430008C9338C0A8E3B0E0E8E3F0E040818B8112
:10144000282F30E081E090E0022E02C0880F991F23
:101450000A94E2F784278C9325C0A5E3B0E0E5E386
:10146000F0E040818B81282F30E081E090E0022E77
:1014700002C0880F991F0A94E2F784278C9312C048
:10148000A2E3B0E0E2E3F0E040818B81282F30E07E
:1014900081E090E0022E02C0880F991F0A94E2F7C3
:1014A00084278C938A810F900F900F900F900F904C
:1014B000CF91DF910895DF93CF9300D000D0CDB7C7
:1014C000DEB78A8381E089838A81843008F03FC057
:1014D00019828A81282F30E03C832B838B819C8169
:1014E00081309105E9F02B813C81223031052CF4CB
:1014F0008B819C81009761F02AC02B813C81223036
:101500003105B1F08B819C8183309105C9F01FC0FA
:10151000ABE3B0E0EBE3F0E0808180958C9317C003
:10152000A8E3B0E0E8E3F0E0808180958C930FC001
:10153000A5E3B0E0E5E3F0E0808180958C9307C0FF
:10154000A2E3B0E0E2E3F0E0808180958C938981B2
:101550000F900F900F900F90CF91DF910895DF9330
:10156000CF93CDB7DEB7AFE5B0E0EFE5F0E0808137
:1015700080688C93CF91DF910895DF93CF93CDB79F
:10158000DEB7AFE5B0E0EFE5F0E080818F778C93D8
:10159000CF91DF910895DF93CF9300D00F92CDB715
:1015A000DEB79B838A8319828A819B81009709F425
:1015B0003EC1EA81FB8180818823D1F40E94AF0A79
:1015C000AAE2B0E0EAE2F0E0808180688C93AAE2CF
:1015D000B0E0EAE2F0E0808180648C93AAE2B0E0BF
:1015E000EAE2F0E0808180628C931092680020C073
:1015F000EA81FB8180818130C9F4AAE2B0E0EAE2AD
:10160000F0E080818F778C93AAE2B0E0EAE2F0E02C
:1016100080818F7B8C93AAE2B0E0EAE2F0E08081E7
:101620008F7D8C9381E08093680002C084E0898381
:10163000A0E4B0E0E0E4F0E0808180688C93EA818F
:10164000FB8181818823B1F4A0E4B0E0E0E4F0E024
:1016500080818F7B8C93EA81FB81828193818333AC
:10166000910529F4E9E2F0E083E3808312C082E08F
:1016700089830FC0EA81FB818181813041F4A0E43C
:10168000B0E0E0E4F0E0808180648C9302C081E00F
:101690008983EA81FB818581882379F4A0E4B0E025
:1016A000E0E4F0E080818F7D8C93A0E4B0E0E0E4A2
:1016B000F0E080818F7E8C932AC0EA81FB81858156
:1016C000882379F4A0E4B0E0E0E4F0E080818F7D4D
:1016D0008C93A0E4B0E0E0E4F0E0808180618C9342
:1016E00016C0EA81FB818581882379F4A0E4B0E00B
:1016F000E0E4F0E0808180628C93A0E4B0E0E0E47C
:10170000F0E0808180618C9302C086E08983EA8169
:10171000FB818681882341F4A0E4B0E0E0E4F0E0BE
:101720008081877F8C930FC0EA81FB818681813025
:1017300041F4A0E4B0E0E0E4F0E0808188608C93C4
:1017400002C087E08983EA81FB818481882371F468
:10175000A0E4B0E0E0E4F0E080818C93AAE2B0E0A5
:10176000EAE2F0E080818B7F8C9352C0EA81FB81BA
:101770008481823079F4A0E4B0E0E0E4F0E080819C
:1017800082608C93AAE2B0E0EAE2F0E080818B7F95
:101790008C933EC0EA81FB818481843079F4A0E49B
:1017A000B0E0E0E4F0E0808184608C93AAE2B0E0F5
:1017B000EAE2F0E080818B7F8C932AC0EA81FB8192
:1017C0008481863079F4A0E4B0E0E0E4F0E0808148
:1017D00086608C93AAE2B0E0EAE2F0E080818B7F41
:1017E0008C9316C0EA81FB818481873079F4A0E470
:1017F000B0E0E0E4F0E0808186608C93AAE2B0E0A3
:10180000EAE2F0E0808184608C9302C083E0898307
:10181000AAE2B0E0EAE2F0E0808180618C93AAE283
:10182000B0E0EAE2F0E0808188608C9302C085E05D
:10183000898389810F900F900F90CF91DF91089548
:10184000DF93CF9300D0CDB7DEB78A831982809122
:101850006800813089F4EBE2F0E080818295869522
:101860008770882F90E0817090700097A1F3ECE270
:10187000F0E08A81808314C080916800882371F42D
:1018800080916A00813061F40E94BD0A8A81809350
:101890006D0010926A000E94AF0A02C084E0898342
:1018A00089810F900F90CF91DF910895DF93CF93AF
:1018B00000D00F92CDB7DEB79B838A8319828A81CD
:1018C0009B81009739F180916800813061F4EBE2EF
:1018D000F0E080818823DCF7ECE2F0E08081EA81AF
:1018E000FB81808319C080916800882381F48091F6
:1018F0006B00813089F40E94BD0A80916C00EA81FE
:10190000FB81808310926B000E94AF0A05C084E0C7
:10191000898302C085E0898389810F900F900F90A1
:10192000CF91DF9108951F920F920FB60F9211245D
:101930008F93EF93FF93DF93CF93CDB7DEB781E023
:1019400080936B00ECE2F0E0808180936C00CF919B
:10195000DF91FF91EF918F910F900FBE0F901F902D
:101960001895DF93CF93CDB7DEB7A5970FB6F89450
:10197000DEBF0FBECDBF83E390E098A38F8F86E0DC
:1019800089A381E08D8F1AA21CA21BA21E8ECE01FC
:101990004D960E94CB0A8CE061E00E94A3058DE089
:1019A00061E00E94A3058EE061E00E94A3058FE044
:1019B00061E00E94A3058CE060E00E94DC068DE0FF
:1019C00060E00E94DC068EE060E00E94DC068FE0B2
:1019D00060E00E94DC06CE0185960E94560C80E0F5
:1019E00090E0AAE7B4E4898F9A8FAB8FBC8F698DA2
:1019F0007A8D8B8D9C8D20E030E04AEF54E40E947C
:101A00001F02DC01CB018D8B9E8BAF8BB88F6D8954
:101A10007E898F89988D20E030E040E85FE30E9466
:101A2000790388232CF481E090E09C8B8B8B3FC062
:101A30006D897E898F89988D20E03FEF4FE757E4CD
:101A40000E94190318164CF5698D7A8D8B8D9C8D2B
:101A500020E030E040E251E40E941F02DC01CB01B3
:101A6000BC01CD010E944900DC01CB019C8B8B8B1A
:101A70000FC088EC90E09A8B898B89899A890197AD
:101A8000F1F79A8B898B8B899C8901979C8B8B8B27
:101A90008B899C89009769F714C06D897E898F892D
:101AA000988D0E944900DC01CB019C8B8B8B8B892C
:101AB0009C89988B8F878F8598890197F1F7988BF0
:101AC0008F878DA1813109F093C08CE061E00E9485
:101AD000DC068DE061E00E94DC068EE061E00E94A1
:101AE000DC068FE061E00E94DC0680E090E0AAE77F
:101AF000B4E48B879C87AD87BE876B857C858D859D
:101B00009E8520E030E04AEF54E40E941F02DC0191
:101B1000CB018F839887A987BA876F81788589855C
:101B20009A8520E030E040E85FE30E947903882353
:101B30002CF481E090E09E838D833FC06F81788597
:101B400089859A8520E03FEF4FE757E40E9419030B
:101B500018164CF56B857C858D859E8520E030E0E0
:101B600040E251E40E941F02DC01CB01BC01CD0127
:101B70000E944900DC01CB019E838D830FC088EC5D
:101B800090E09C838B838B819C810197F1F79C83F0
:101B90008B838D819E8101979E838D838D819E8114
:101BA000009769F714C06F81788589859A850E94AE
:101BB0004900DC01CB019E838D838D819E819A83B8
:101BC000898389819A810197F1F79A8389838CE0CF
:101BD00060E00E94DC068DE060E00E94DC068EE0A2
:101BE00060E00E94DC068FE060E00E94DC06F3CE3D
:101BF00085E060E00E94DC06EECE2F923F924F928D
:101C00005F926F927F928F929F92AF92BF92CF928C
:101C1000DF92EF92FF920F931F93CF93DF93CDB795
:101C2000DEB7CA1BDB0B0FB6F894DEBF0FBECDBF0D
:101C300009942A88398848885F846E847D848C84DE
:101C40009B84AA84B984C884DF80EE80FD800C81E7
:101C50001B81AA81B981CE0FD11D0FB6F894DEBFCA
:0C1C60000FBECDBFED010895F894FFCF3A
:0A1C6C000000000000000000FF006F
:00000001FF
